{
  "contractName": "Population",
  "abi": [
    {
      "inputs": [],
      "payable": false,
      "stateMutability": "nonpayable",
      "type": "constructor"
    },
    {
      "constant": true,
      "inputs": [],
      "name": "countryName",
      "outputs": [
        {
          "internalType": "string",
          "name": "",
          "type": "string"
        }
      ],
      "payable": false,
      "stateMutability": "view",
      "type": "function"
    },
    {
      "constant": true,
      "inputs": [],
      "name": "currentPopulation",
      "outputs": [
        {
          "internalType": "uint256",
          "name": "",
          "type": "uint256"
        }
      ],
      "payable": false,
      "stateMutability": "view",
      "type": "function"
    },
    {
      "constant": false,
      "inputs": [
        {
          "internalType": "string",
          "name": "name",
          "type": "string"
        },
        {
          "internalType": "uint256",
          "name": "popCount",
          "type": "uint256"
        }
      ],
      "name": "set",
      "outputs": [],
      "payable": false,
      "stateMutability": "nonpayable",
      "type": "function"
    },
    {
      "constant": false,
      "inputs": [
        {
          "internalType": "uint256",
          "name": "decrementBy",
          "type": "uint256"
        }
      ],
      "name": "decrement",
      "outputs": [],
      "payable": false,
      "stateMutability": "nonpayable",
      "type": "function"
    },
    {
      "constant": false,
      "inputs": [
        {
          "internalType": "uint256",
          "name": "incrementBy",
          "type": "uint256"
        }
      ],
      "name": "increment",
      "outputs": [],
      "payable": false,
      "stateMutability": "nonpayable",
      "type": "function"
    }
  ],
  "bytecode": "0x608060405234801561001057600080fd5b506040518060400160405280600781526020017f556e6b6e6f776e000000000000000000000000000000000000000000000000008152506000908051906020019061005c92919061006a565b50600060018190555061010f565b828054600181600116156101000203166002900490600052602060002090601f016020900481019282601f106100ab57805160ff19168380011785556100d9565b828001600101855582156100d9579182015b828111156100d85782518255916020019190600101906100bd565b5b5090506100e691906100ea565b5090565b61010c91905b808211156101085760008160009055506001016100f0565b5090565b90565b6104018061011e6000396000f3fe608060405234801561001057600080fd5b5060043610610074576000357c0100000000000000000000000000000000000000000000000000000000900480633a9ebefd146100795780633f829957146100a7578063704113b31461012a5780637cf5dab0146101485780638a42ebe914610176575b600080fd5b6100a56004803603602081101561008f57600080fd5b810190808035906020019092919050505061023b565b005b6100af61024e565b6040518080602001828103825283818151815260200191508051906020019080838360005b838110156100ef5780820151818401526020810190506100d4565b50505050905090810190601f16801561011c5780820380516001836020036101000a031916815260200191505b509250505060405180910390f35b6101326102ec565b6040518082815260200191505060405180910390f35b6101746004803603602081101561015e57600080fd5b81019080803590602001909291905050506102f2565b005b6102396004803603604081101561018c57600080fd5b81019080803590602001906401000000008111156101a957600080fd5b8201836020820111156101bb57600080fd5b803590602001918460018302840111640100000000831117156101dd57600080fd5b91908080601f016020809104026020016040519081016040528093929190818152602001838380828437600081840152601f19601f82011690508083019250505050505050919291929080359060200190929190505050610305565b005b8060016000828254039250508190555050565b60008054600181600116156101000203166002900480601f0160208091040260200160405190810160405280929190818152602001828054600181600116156101000203166002900480156102e45780601f106102b9576101008083540402835291602001916102e4565b820191906000526020600020905b8154815290600101906020018083116102c757829003601f168201915b505050505081565b60015481565b8060016000828254019250508190555050565b816000908051906020019061031b929190610327565b50806001819055505050565b828054600181600116156101000203166002900490600052602060002090601f016020900481019282601f1061036857805160ff1916838001178555610396565b82800160010185558215610396579182015b8281111561039557825182559160200191906001019061037a565b5b5090506103a391906103a7565b5090565b6103c991905b808211156103c55760008160009055506001016103ad565b5090565b9056fea265627a7a72315820236d4dee20c3fa24aa5542030a1173b880f07bbde93d7e54502a11eb23df9d9464736f6c63430005100032",
  "source": "// SPDX-License-Identifier: UNLICENSED\r\n\r\npragma solidity >=0.4.22 <0.9.0;\r\n\r\ncontract Population {\r\n\tstring public countryName ;\r\n    uint public currentPopulation ;\r\n\r\n    constructor() public {\r\n    countryName = \"Unknown\" ;\r\n    currentPopulation = 0 ;\r\n    }\r\n\r\n    function set(string memory name, uint popCount) public{\r\n    countryName = name ;\r\n    currentPopulation = popCount ;\r\n    }\r\n\r\n    function decrement(uint decrementBy) public{\r\n    currentPopulation -= decrementBy ;\r\n    }\r\n\r\n\r\n    function increment(uint incrementBy) public{\r\n    currentPopulation += incrementBy ;\r\n    }\r\n\r\n\r\n}\r\n",
  "sourcePath": "C:\\Users\\lenovo\\Desktop\\Blockchain work\\Population_dapp_flutter\\contracts\\Population.sol",
  "compiler": {
    "name": "solc",
    "version": "0.5.16+commit.9c3226ce.Emscripten.clang"
  },
  "schemaVersion": "3.4.8",
  "updatedAt": "2022-08-05T08:42:56.978Z",
  "networkType": "ethereum",
  "devdoc": {
    "methods": {}
  },
  "userdoc": {
    "methods": {}
  }
}